:08000000803102288731FD2F39
:100ED600803021009E00080020008C018E012C30FD
:100EE60021008C000B308E00243023008C008E01F4
:100EF6000800F300730821009D00000021009D14E6
:100F06009D18832F1D101C08F1001B08F000080017
:100F160055303C008F00AA308F000F102008E039B2
:100F26001038A0002108E0391138A1003D00220840
:100F3600E0391938A2003C002208E0391338A20033
:100F460055308F00AA308F000F14403024009400D3
:100F56002430950097010800F901FA01F701F8011C
:100F660087316F27873187316B27873187318B2709
:100F76008731183021009700640063000130F907BB
:100F86000030FA3D093087317C2787317108F80037
:100F96007008F700033079067A04031DC02F02306B
:100FA6007802B23003197702031CC02FF901FA0147
:100FB60020000E16FB017B08031DFA2F6400063085
:100FC600F6001330F500B130F400F40BE82FF50B02
:100FD600E82FF60BE82F00320130F9070030FA3D12
:100FE6000130F4007408FB077B080319E12F200089
:0A0FF6000E12C02F20008731AF2F2C
:020000040001F9
:08000E00ECFFFFFFFFDFFFFF25
:00000001FF
