:08000000803102288731FD2F39
:100F7200803021009E00080020008C018E010C3080
:100F820021008C0004308E00043023008C000430D9
:100F92008E000800F300730821009D00000021006C
:100FA2009D149D18D22F1D101C08F1001B08F00083
:100FB20008008731BD2787318731B927873109304A
:100FC2008731CB2787317108F7007008F6000230AD
:100FD2007702B23003197602031CF22F20000E169C
:100FE200F42F20000E12A330F5005530F400F40B5C
:0E0FF200F82FF50BF82FE02F20008731DA2FB3
:020000040001F9
:08000E00ECFFF3FFFFDFFFFF31
:00000001FF
