:08000000803102288731FC2F3A
:100F2000803021009E00080020008C018E010C30D2
:100F300021008C0007308E00043023008C00043028
:100F40008E000800F300730821009D0000002100BE
:100F50009D149D18A92F1D101C08F1001B08F000FE
:100F60000800F901FA01F701F80187319427873168
:100F70008731902787311830210097006400630083
:100F80000130F9070030FA3D09308731A227873157
:100F90007108F8007008F700033079067A04031D21
:100FA000BF2F02307802B23003197702031CBF2F23
:100FB000F901FA0120000E16FB017B08031DF92F31
:100FC00064000630F6001330F500B130F400F40B85
:100FD000E72FF50BE72FF60BE72F00320130F9076B
:100FE0000030FA3D0130F4007408FB077B08031958
:100FF000E02F20000E12BF2FFC0120008731B12FFF
:020000040001F9
:08000E00ECFFFFFFFFDFFFFF25
:00000001FF
